{
  "contractName": "Item",
  "abi": [
    {
      "inputs": [
        {
          "internalType": "contract ItemManager",
          "name": "_parentContract",
          "type": "address"
        },
        {
          "internalType": "uint256",
          "name": "_index",
          "type": "uint256"
        },
        {
          "internalType": "uint256",
          "name": "_priceInWei",
          "type": "uint256"
        }
      ],
      "stateMutability": "nonpayable",
      "type": "constructor"
    },
    {
      "stateMutability": "nonpayable",
      "type": "fallback"
    },
    {
      "inputs": [],
      "name": "index",
      "outputs": [
        {
          "internalType": "uint256",
          "name": "",
          "type": "uint256"
        }
      ],
      "stateMutability": "view",
      "type": "function"
    },
    {
      "inputs": [],
      "name": "priceInWei",
      "outputs": [
        {
          "internalType": "uint256",
          "name": "",
          "type": "uint256"
        }
      ],
      "stateMutability": "view",
      "type": "function"
    },
    {
      "inputs": [],
      "name": "pricePaid",
      "outputs": [
        {
          "internalType": "uint256",
          "name": "",
          "type": "uint256"
        }
      ],
      "stateMutability": "view",
      "type": "function"
    },
    {
      "stateMutability": "payable",
      "type": "receive"
    }
  ],
  "bytecode": "0x608060405234801561001057600080fd5b50604051610772380380610772833981810160405281019061003291906100b3565b82600360006101000a81548173ffffffffffffffffffffffffffffffffffffffff021916908373ffffffffffffffffffffffffffffffffffffffff160217905550816002819055508060008190555050505061017e565b60008151905061009881610150565b92915050565b6000815190506100ad81610167565b92915050565b6000806000606084860312156100c857600080fd5b60006100d686828701610089565b93505060206100e78682870161009e565b92505060406100f88682870161009e565b9150509250925092565b600061010d82610126565b9050919050565b600061011f82610102565b9050919050565b600073ffffffffffffffffffffffffffffffffffffffff82169050919050565b6000819050919050565b61015981610114565b811461016457600080fd5b50565b61017081610146565b811461017b57600080fd5b50565b6105e58061018d6000396000f3fe6080604052600436106100385760003560e01c80632986c0e5146102575780633c8da5881461028257806389794d00146102ad57610248565b3661024857600060015414610082576040517f08c379a0000000000000000000000000000000000000000000000000000000008152600401610079906103ea565b60405180910390fd5b34600054146100c6576040517f08c379a00000000000000000000000000000000000000000000000000000000081526004016100bd906103ca565b60405180910390fd5b34600160008282546100d8919061044c565b925050819055506000600360009054906101000a900473ffffffffffffffffffffffffffffffffffffffff1673ffffffffffffffffffffffffffffffffffffffff163460025460405160240161012e919061040a565b6040516020818303038152906040527f800fb83f000000000000000000000000000000000000000000000000000000007bffffffffffffffffffffffffffffffffffffffffffffffffffffffff19166020820180517bffffffffffffffffffffffffffffffffffffffffffffffffffffffff83818316178352505050506040516101b89190610393565b60006040518083038185875af1925050503d80600081146101f5576040519150601f19603f3d011682016040523d82523d6000602084013e6101fa565b606091505b505090506001151581151514610245576040517f08c379a000000000000000000000000000000000000000000000000000000000815260040161023c906103aa565b60405180910390fd5b50005b34801561025457600080fd5b50005b34801561026357600080fd5b5061026c6102d8565b604051610279919061040a565b60405180910390f35b34801561028e57600080fd5b506102976102de565b6040516102a4919061040a565b60405180910390f35b3480156102b957600080fd5b506102c26102e4565b6040516102cf919061040a565b60405180910390f35b60025481565b60005481565b60015481565b60006102f582610425565b6102ff8185610430565b935061030f8185602086016104ac565b80840191505092915050565b600061032860218361043b565b91506103338261050e565b604082019050919050565b600061034b60188361043b565b91506103568261055d565b602082019050919050565b600061036e600c8361043b565b915061037982610586565b602082019050919050565b61038d816104a2565b82525050565b600061039f82846102ea565b915081905092915050565b600060208201905081810360008301526103c38161031b565b9050919050565b600060208201905081810360008301526103e38161033e565b9050919050565b6000602082019050818103600083015261040381610361565b9050919050565b600060208201905061041f6000830184610384565b92915050565b600081519050919050565b600081905092915050565b600082825260208201905092915050565b6000610457826104a2565b9150610462836104a2565b9250827fffffffffffffffffffffffffffffffffffffffffffffffffffffffffffffffff03821115610497576104966104df565b5b828201905092915050565b6000819050919050565b60005b838110156104ca5780820151818401526020810190506104af565b838111156104d9576000848401525b50505050565b7f4e487b7100000000000000000000000000000000000000000000000000000000600052601160045260246000fd5b7f546865207472616e73616374696f6e207761736e27742073756363657373667560008201527f6c00000000000000000000000000000000000000000000000000000000000000602082015250565b7f66756c6c207061796d656e742069732072657175697265640000000000000000600082015250565b7f4974656d20697320736f6c64000000000000000000000000000000000000000060008201525056fea26469706673582212205d65d878f4fe65c157ddc0de01a9a996b132c085e78595b8ee7c92ffbd82ce7c64736f6c63430008040033",
  "immutableReferences": {},
  "source": "pragma solidity ^0.8.4;\r\n\r\nimport \"./ItemManager.sol\";\r\n\r\ncontract Item {\r\n    uint public priceInWei;\r\n    uint public pricePaid;\r\n    uint public index;\r\n    \r\n    ItemManager parentContract;\r\n    \r\n    constructor(ItemManager _parentContract, uint _index, uint _priceInWei) {\r\n        parentContract = _parentContract;\r\n        index = _index;\r\n        priceInWei = _priceInWei;\r\n    }\r\n    \r\n    receive() external payable {\r\n        require(pricePaid == 0, \"Item is sold\");\r\n        require(priceInWei == msg.value, \"full payment is required\");\r\n        pricePaid += msg.value;\r\n        (bool success, ) =address(parentContract).call{value: msg.value}(abi.encodeWithSignature(\"triggerPayment(uint256)\", index));\r\n        require(success == true, \"The transaction wasn't successful\");\r\n    }\r\n    \r\n    fallback() external {\r\n        \r\n    }\r\n}\r\n",
  "sourcePath": "E:/Documents/OneDrive/Documents/truffle/react/contracts/Item.sol",
  "compiler": {
    "name": "solc",
    "version": "0.8.4+commit.c7e474f2.Emscripten.clang"
  },
  "schemaVersion": "3.4.1",
  "updatedAt": "2021-07-22T06:25:01.073Z",
  "devdoc": {
    "kind": "dev",
    "methods": {},
    "version": 1
  },
  "userdoc": {
    "kind": "user",
    "methods": {},
    "version": 1
  }
}