{
  "contractName": "ItemManager",
  "abi": [
    {
      "anonymous": false,
      "inputs": [
        {
          "indexed": false,
          "internalType": "uint256",
          "name": "_index",
          "type": "uint256"
        },
        {
          "indexed": false,
          "internalType": "uint256",
          "name": "_step",
          "type": "uint256"
        },
        {
          "indexed": false,
          "internalType": "address",
          "name": "_itemAddress",
          "type": "address"
        }
      ],
      "name": "SupplyChainStep",
      "type": "event"
    },
    {
      "inputs": [],
      "name": "isOwner",
      "outputs": [
        {
          "internalType": "bool",
          "name": "",
          "type": "bool"
        }
      ],
      "stateMutability": "view",
      "type": "function",
      "constant": true
    },
    {
      "inputs": [
        {
          "internalType": "uint256",
          "name": "",
          "type": "uint256"
        }
      ],
      "name": "items",
      "outputs": [
        {
          "internalType": "contract Item",
          "name": "item",
          "type": "address"
        },
        {
          "internalType": "string",
          "name": "id",
          "type": "string"
        },
        {
          "internalType": "uint256",
          "name": "price",
          "type": "uint256"
        },
        {
          "internalType": "enum ItemManager.ItemState",
          "name": "state",
          "type": "uint8"
        }
      ],
      "stateMutability": "view",
      "type": "function",
      "constant": true
    },
    {
      "inputs": [
        {
          "internalType": "string",
          "name": "_id",
          "type": "string"
        },
        {
          "internalType": "uint256",
          "name": "_price",
          "type": "uint256"
        }
      ],
      "name": "createItem",
      "outputs": [],
      "stateMutability": "nonpayable",
      "type": "function"
    },
    {
      "inputs": [
        {
          "internalType": "uint256",
          "name": "_index",
          "type": "uint256"
        }
      ],
      "name": "triggerPayment",
      "outputs": [],
      "stateMutability": "payable",
      "type": "function",
      "payable": true
    },
    {
      "inputs": [
        {
          "internalType": "uint256",
          "name": "_index",
          "type": "uint256"
        }
      ],
      "name": "triggerDelivery",
      "outputs": [],
      "stateMutability": "nonpayable",
      "type": "function"
    }
  ],
  "bytecode": "0x608060405234801561001057600080fd5b50336000806101000a81548173ffffffffffffffffffffffffffffffffffffffff021916908373ffffffffffffffffffffffffffffffffffffffff1602179055506119b2806100606000396000f3fe608060405260043610620000505760003560e01c8063800fb83f14620000555780638c55174214620000755780638f32d59b14620000a3578063bfb231d214620000d3578063cd31831e146200011a575b600080fd5b6200007360048036038101906200006d919062000b23565b62000148565b005b3480156200008257600080fd5b50620000a160048036038101906200009b919062000ac9565b62000374565b005b348015620000b057600080fd5b50620000bb6200060f565b604051620000ca919062000c92565b60405180910390f35b348015620000e057600080fd5b50620000ff6004803603810190620000f9919062000b23565b62000666565b60405162000111949392919062000cec565b60405180910390f35b3480156200012757600080fd5b5062000146600480360381019062000140919062000b23565b62000753565b005b600060016000838152602001908152602001600020905034816002015414620001a8576040517f08c379a00000000000000000000000000000000000000000000000000000000081526004016200019f9062000d40565b60405180910390fd5b60006002811115620001e3577f4e487b7100000000000000000000000000000000000000000000000000000000600052602160045260246000fd5b8160030160009054906101000a900460ff1660028111156200022e577f4e487b7100000000000000000000000000000000000000000000000000000000600052602160045260246000fd5b1462000271576040517f08c379a0000000000000000000000000000000000000000000000000000000008152600401620002689062000da6565b60405180910390fd5b60018160030160006101000a81548160ff02191690836002811115620002c0577f4e487b7100000000000000000000000000000000000000000000000000000000600052602160045260246000fd5b02179055507fa4035636e99f06b7651a604c1019fa4e8779fe68ef27eeb74dff2de348f6199b828260030160009054906101000a900460ff16600281111562000332577f4e487b7100000000000000000000000000000000000000000000000000000000600052602160045260246000fd5b8360000160009054906101000a900473ffffffffffffffffffffffffffffffffffffffff16604051620003689392919062000dc8565b60405180910390a15050565b6200037e6200060f565b620003c0576040517f08c379a0000000000000000000000000000000000000000000000000000000008152600401620003b79062000d62565b60405180910390fd5b60003060025483604051620003d59062000982565b620003e39392919062000caf565b604051809103906000f08015801562000400573d6000803e3d6000fd5b50905060405180608001604052808273ffffffffffffffffffffffffffffffffffffffff1681526020018481526020018381526020016000600281111562000471577f4e487b7100000000000000000000000000000000000000000000000000000000600052602160045260246000fd5b81525060016000600254815260200190815260200160002060008201518160000160006101000a81548173ffffffffffffffffffffffffffffffffffffffff021916908373ffffffffffffffffffffffffffffffffffffffff1602179055506020820151816001019080519060200190620004ee92919062000990565b506040820151816002015560608201518160030160006101000a81548160ff021916908360028111156200054b577f4e487b7100000000000000000000000000000000000000000000000000000000600052602160045260246000fd5b02179055509050507fa4035636e99f06b7651a604c1019fa4e8779fe68ef27eeb74dff2de348f6199b60025460016000600254815260200190815260200160002060030160009054906101000a900460ff166002811115620005d6577f4e487b7100000000000000000000000000000000000000000000000000000000600052602160045260246000fd5b83604051620005e89392919062000dc8565b60405180910390a160026000815480929190620006059062000ff4565b9190505550505050565b60008060009054906101000a900473ffffffffffffffffffffffffffffffffffffffff1673ffffffffffffffffffffffffffffffffffffffff163373ffffffffffffffffffffffffffffffffffffffff1614905090565b60016020528060005260406000206000915090508060000160009054906101000a900473ffffffffffffffffffffffffffffffffffffffff1690806001018054620006b19062000f88565b80601f0160208091040260200160405190810160405280929190818152602001828054620006df9062000f88565b8015620007305780601f10620007045761010080835404028352916020019162000730565b820191906000526020600020905b8154815290600101906020018083116200071257829003601f168201915b5050505050908060020154908060030160009054906101000a900460ff16905084565b6200075d6200060f565b6200079f576040517f08c379a0000000000000000000000000000000000000000000000000000000008152600401620007969062000d62565b60405180910390fd5b600060016000838152602001908152602001600020905060016002811115620007f1577f4e487b7100000000000000000000000000000000000000000000000000000000600052602160045260246000fd5b8160030160009054906101000a900460ff1660028111156200083c577f4e487b7100000000000000000000000000000000000000000000000000000000600052602160045260246000fd5b146200087f576040517f08c379a0000000000000000000000000000000000000000000000000000000008152600401620008769062000d84565b60405180910390fd5b60028160030160006101000a81548160ff02191690836002811115620008ce577f4e487b7100000000000000000000000000000000000000000000000000000000600052602160045260246000fd5b02179055507fa4035636e99f06b7651a604c1019fa4e8779fe68ef27eeb74dff2de348f6199b828260030160009054906101000a900460ff16600281111562000940577f4e487b7100000000000000000000000000000000000000000000000000000000600052602160045260246000fd5b8360000160009054906101000a900473ffffffffffffffffffffffffffffffffffffffff16604051620009769392919062000dc8565b60405180910390a15050565b610772806200120b83390190565b8280546200099e9062000f88565b90600052602060002090601f016020900481019282620009c2576000855562000a0e565b82601f10620009dd57805160ff191683800117855562000a0e565b8280016001018555821562000a0e579182015b8281111562000a0d578251825591602001919060010190620009f0565b5b50905062000a1d919062000a21565b5090565b5b8082111562000a3c57600081600090555060010162000a22565b5090565b600062000a5762000a518462000e2e565b62000e05565b90508281526020810184848401111562000a7057600080fd5b62000a7d84828562000f43565b509392505050565b600082601f83011262000a9757600080fd5b813562000aa984826020860162000a40565b91505092915050565b60008135905062000ac381620011f0565b92915050565b6000806040838503121562000add57600080fd5b600083013567ffffffffffffffff81111562000af857600080fd5b62000b068582860162000a85565b925050602062000b198582860162000ab2565b9150509250929050565b60006020828403121562000b3657600080fd5b600062000b468482850162000ab2565b91505092915050565b62000b5a8162000e80565b82525050565b62000b6b8162000e94565b82525050565b62000b7c8162000edf565b82525050565b62000b8d8162000f07565b82525050565b62000b9e8162000f2f565b82525050565b600062000bb18262000e64565b62000bbd818562000e6f565b935062000bcf81856020860162000f52565b62000bda81620010fe565b840191505092915050565b600062000bf460188362000e6f565b915062000c01826200110f565b602082019050919050565b600062000c1b60118362000e6f565b915062000c288262001138565b602082019050919050565b600062000c4260248362000e6f565b915062000c4f8262001161565b604082019050919050565b600062000c6960158362000e6f565b915062000c7682620011b0565b602082019050919050565b62000c8c8162000ed5565b82525050565b600060208201905062000ca9600083018462000b60565b92915050565b600060608201905062000cc6600083018662000b71565b62000cd5602083018562000c81565b62000ce4604083018462000c81565b949350505050565b600060808201905062000d03600083018762000b82565b818103602083015262000d17818662000ba4565b905062000d28604083018562000c81565b62000d37606083018462000b93565b95945050505050565b6000602082019050818103600083015262000d5b8162000be5565b9050919050565b6000602082019050818103600083015262000d7d8162000c0c565b9050919050565b6000602082019050818103600083015262000d9f8162000c33565b9050919050565b6000602082019050818103600083015262000dc18162000c5a565b9050919050565b600060608201905062000ddf600083018662000c81565b62000dee602083018562000c81565b62000dfd604083018462000b4f565b949350505050565b600062000e1162000e24565b905062000e1f828262000fbe565b919050565b6000604051905090565b600067ffffffffffffffff82111562000e4c5762000e4b620010cf565b5b62000e5782620010fe565b9050602081019050919050565b600081519050919050565b600082825260208201905092915050565b600062000e8d8262000eb5565b9050919050565b60008115159050919050565b600081905062000eb082620011d9565b919050565b600073ffffffffffffffffffffffffffffffffffffffff82169050919050565b6000819050919050565b600062000eec8262000ef3565b9050919050565b600062000f008262000eb5565b9050919050565b600062000f148262000f1b565b9050919050565b600062000f288262000eb5565b9050919050565b600062000f3c8262000ea0565b9050919050565b82818337600083830152505050565b60005b8381101562000f7257808201518184015260208101905062000f55565b8381111562000f82576000848401525b50505050565b6000600282049050600182168062000fa157607f821691505b6020821081141562000fb85762000fb7620010a0565b5b50919050565b62000fc982620010fe565b810181811067ffffffffffffffff8211171562000feb5762000fea620010cf565b5b80604052505050565b6000620010018262000ed5565b91507fffffffffffffffffffffffffffffffffffffffffffffffffffffffffffffffff82141562001037576200103662001042565b5b600182019050919050565b7f4e487b7100000000000000000000000000000000000000000000000000000000600052601160045260246000fd5b7f4e487b7100000000000000000000000000000000000000000000000000000000600052602160045260246000fd5b7f4e487b7100000000000000000000000000000000000000000000000000000000600052602260045260246000fd5b7f4e487b7100000000000000000000000000000000000000000000000000000000600052604160045260246000fd5b6000601f19601f8301169050919050565b7f66756c6c207061796d656e742069732072657175697265640000000000000000600082015250565b7f6f6e6c79206f776e65722063616e20646f000000000000000000000000000000600082015250565b7f6f6e6c792070616964206974656d732061726520726561647920746f2064656c60008201527f6976657200000000000000000000000000000000000000000000000000000000602082015250565b7f6974656d206973206e6f7420617661696c61626c650000000000000000000000600082015250565b60038110620011ed57620011ec62001071565b5b50565b620011fb8162000ed5565b81146200120757600080fd5b5056fe608060405234801561001057600080fd5b50604051610772380380610772833981810160405281019061003291906100b3565b82600360006101000a81548173ffffffffffffffffffffffffffffffffffffffff021916908373ffffffffffffffffffffffffffffffffffffffff160217905550816002819055508060008190555050505061017e565b60008151905061009881610150565b92915050565b6000815190506100ad81610167565b92915050565b6000806000606084860312156100c857600080fd5b60006100d686828701610089565b93505060206100e78682870161009e565b92505060406100f88682870161009e565b9150509250925092565b600061010d82610126565b9050919050565b600061011f82610102565b9050919050565b600073ffffffffffffffffffffffffffffffffffffffff82169050919050565b6000819050919050565b61015981610114565b811461016457600080fd5b50565b61017081610146565b811461017b57600080fd5b50565b6105e58061018d6000396000f3fe6080604052600436106100385760003560e01c80632986c0e5146102575780633c8da5881461028257806389794d00146102ad57610248565b3661024857600060015414610082576040517f08c379a0000000000000000000000000000000000000000000000000000000008152600401610079906103ea565b60405180910390fd5b34600054146100c6576040517f08c379a00000000000000000000000000000000000000000000000000000000081526004016100bd906103ca565b60405180910390fd5b34600160008282546100d8919061044c565b925050819055506000600360009054906101000a900473ffffffffffffffffffffffffffffffffffffffff1673ffffffffffffffffffffffffffffffffffffffff163460025460405160240161012e919061040a565b6040516020818303038152906040527f800fb83f000000000000000000000000000000000000000000000000000000007bffffffffffffffffffffffffffffffffffffffffffffffffffffffff19166020820180517bffffffffffffffffffffffffffffffffffffffffffffffffffffffff83818316178352505050506040516101b89190610393565b60006040518083038185875af1925050503d80600081146101f5576040519150601f19603f3d011682016040523d82523d6000602084013e6101fa565b606091505b505090506001151581151514610245576040517f08c379a000000000000000000000000000000000000000000000000000000000815260040161023c906103aa565b60405180910390fd5b50005b34801561025457600080fd5b50005b34801561026357600080fd5b5061026c6102d8565b604051610279919061040a565b60405180910390f35b34801561028e57600080fd5b506102976102de565b6040516102a4919061040a565b60405180910390f35b3480156102b957600080fd5b506102c26102e4565b6040516102cf919061040a565b60405180910390f35b60025481565b60005481565b60015481565b60006102f582610425565b6102ff8185610430565b935061030f8185602086016104ac565b80840191505092915050565b600061032860218361043b565b91506103338261050e565b604082019050919050565b600061034b60188361043b565b91506103568261055d565b602082019050919050565b600061036e600c8361043b565b915061037982610586565b602082019050919050565b61038d816104a2565b82525050565b600061039f82846102ea565b915081905092915050565b600060208201905081810360008301526103c38161031b565b9050919050565b600060208201905081810360008301526103e38161033e565b9050919050565b6000602082019050818103600083015261040381610361565b9050919050565b600060208201905061041f6000830184610384565b92915050565b600081519050919050565b600081905092915050565b600082825260208201905092915050565b6000610457826104a2565b9150610462836104a2565b9250827fffffffffffffffffffffffffffffffffffffffffffffffffffffffffffffffff03821115610497576104966104df565b5b828201905092915050565b6000819050919050565b60005b838110156104ca5780820151818401526020810190506104af565b838111156104d9576000848401525b50505050565b7f4e487b7100000000000000000000000000000000000000000000000000000000600052601160045260246000fd5b7f546865207472616e73616374696f6e207761736e27742073756363657373667560008201527f6c00000000000000000000000000000000000000000000000000000000000000602082015250565b7f66756c6c207061796d656e742069732072657175697265640000000000000000600082015250565b7f4974656d20697320736f6c64000000000000000000000000000000000000000060008201525056fea26469706673582212205d65d878f4fe65c157ddc0de01a9a996b132c085e78595b8ee7c92ffbd82ce7c64736f6c63430008040033a2646970667358221220a05da81eb7030016a488d3bc7f43e9949d8f745ff6f033ac722cad1ebbb11c5164736f6c63430008040033",
  "immutableReferences": {},
  "source": "pragma solidity ^0.8.4;\r\n\r\nimport \"./Ownable.sol\";\r\nimport \"./Item.sol\";\r\n\r\ncontract ItemManager is Ownable {\r\n    \r\n    enum ItemState{ CREATED, PAID, DELIVERIED }\r\n    struct S_Item {\r\n        Item item;\r\n        string id;\r\n        uint price;\r\n        ItemState state;\r\n    }\r\n    event SupplyChainStep(uint _index, uint _step, address _itemAddress);\r\n    mapping(uint => S_Item) public items;\r\n    uint itemIndex;\r\n    \r\n    function createItem(string memory _id, uint _price) public onlyOwner {\r\n        Item item = new Item(this, itemIndex, _price);\r\n        items[itemIndex] = S_Item(item, _id, _price, ItemState.CREATED);\r\n        emit SupplyChainStep(itemIndex, uint(items[itemIndex].state), address(item));\r\n        itemIndex++;\r\n    }\r\n    \r\n    function triggerPayment(uint _index) public payable {\r\n        S_Item storage item = items[_index];\r\n        require(item.price == msg.value, 'full payment is required');\r\n        require(item.state == ItemState.CREATED, 'item is not available');\r\n        item.state = ItemState.PAID;\r\n        emit SupplyChainStep(_index, uint(item.state), address(item.item));\r\n    }\r\n    \r\n    function triggerDelivery(uint _index) public onlyOwner {\r\n        S_Item storage item = items[_index];\r\n        require(item.state == ItemState.PAID, 'only paid items are ready to deliver');\r\n        item.state = ItemState.DELIVERIED;\r\n        emit SupplyChainStep(_index, uint(item.state), address(item.item));\r\n    }\r\n}\r\n",
  "sourcePath": "E:/Documents/OneDrive/Documents/truffle/react/contracts/ItemManager.sol",
  "compiler": {
    "name": "solc",
    "version": "0.8.4+commit.c7e474f2.Emscripten.clang"
  },
  "schemaVersion": "3.4.1",
  "updatedAt": "2021-07-22T09:48:39.965Z",
  "networkType": "ethereum",
  "devdoc": {
    "kind": "dev",
    "methods": {},
    "version": 1
  },
  "userdoc": {
    "kind": "user",
    "methods": {},
    "version": 1
  }
}